:100000000C94CA010C94FB010C94FB010C94FB01B1
:100010000C94FB010C94FB010C94FB010C94FB0170
:100020000C94FB010C940A120C940A120C940A1200
:100030000C94FB010C9482130C94FB010C94FB01B7
:100040000C94FB010C94DB150C94FB010C94FB014C
:100050000C94FB010C94FB010C94FB010C943813E1
:100060000C94FB010C94F1140C94C7140C94FB0138
:100070000C94FB010C94FB010C94FB010C94FB0110
:100080000C94FB010C94FB010C94FB010C94FB0100
:100090000C94FB010C94FB010C94FB010C941412C6
:1000A0000C94FB010C94FB010C94FB010C94FB01E0
:1000B0000C94FB010C94FB010C94FB010C941B159C
:1000C0000C94FB010C94FB010C94FB010C949D140B
:1000D0000C9473140C94FB010C9449140C941F148D
:1000E0000C94FB0107634236B79BD8A71A396856B0
:1000F00018AEBAAB558C1D3CB7CC5763BD6DEDFD4A
:10010000753EF6177231BF000000803F0800000006
:10011000BE922449123EABAAAA2ABECDCCCC4C3EFC
:1001200000000080BEABAAAAAA3E00000000BF00EB
:100130000000803F0000000000084178D3BB4387E7
:10014000D1133D190E3CC3BD4282AD2B3E68EC82FB
:1001500076BED98FE1A93E4C80EFFFBE01C4FF7F80
:100160003F00000000000C94CF020C94FA1B0C948A
:1001700027020C949B0B0C94170A0C94DD020C9430
:100180007D020C94FC020C94030A0C94D6090C9486
:10019000FD010C9483160C949C0B0C94EA020C94B5
:1001A000F4020C948F090C94851D0C94911C0C94F2
:1001B0000A030C94F8020C94EE020C947E1C0C942E
:1001C000A8090C94EF090C94210A0C94D9020C9400
:1001D00006030C946A080C94721D0C94801D0C94F8
:1001E000D5020C94FE010C9436020C94B01D0C94B4
:1001F000C2090C941E080C94FC070C9410080C9473
:10020000BA1C0C940D0A0C94B6160C94A7070C9407
:10021000CC090C940F030C9494090C94BA090C9417
:10022000E0090C9402030C94E4020C9450020C9428
:10023000241D0C9426020C9410030C94551C0C9451
:1002400014030C94681B0C9449020C94ED070C9455
:10025000170E0C94311B0C94B2090C94E1020C940F
:100260009E090C947E090C94B7080C94F9090200BD
:10027000002100240027002A002D00300033000157
:10028000010000040107010A0100002200250028E6
:10029000002B002E0031003400020100000501088F
:1002A000010B01000020002300260029002C002F54
:1002B00000320000010000030106010901050505E7
:1002C00005070508080808020202020A0A080804CD
:1002D00004040401010101010101010303030303FB
:1002E000030303040707070C0C0C0C0C0C0C0C028A
:1002F00002020206060606060606060B0B0B0B0B91
:100300000B0B0B0102102020080810204010204089
:1003100080020102010804020101020408102040C9
:1003200080804020100804020180040201804020E7
:100330001008040201080402010102040810204010
:1003400080010204081020408000000A0B02090C02
:100350000D0E08070304010000000000000000006B
:10036000000000000000000000000000000000008D
:10037000000000000012111000000000000000004A
:10038000000000000000000000000000000000006D
:10039000B616831611241FBECFEFD1E2DEBFCDBF4C
:1003A00000E00CBF12E0A0E0B2E0E2E7F9E400E018
:1003B0000BBF02C007900D92A63AB107D9F727E00C
:1003C000A6EAB2E001C01D92A53AB207E1F711E03A
:1003D000C9ECD1E000E006C021970109802FFE01A1
:1003E0000E94991FC83CD10780E00807A9F70E9426
:1003F000AE180C94A7240C94000008950895209141
:100400002003260F3327331F21323105ECF42091CE
:100410009103FC0190E080E0243069F082E00895CF
:10042000A09120032191AC0140505D4FA40FB52F46
:10043000B11D2C930196861798F380912003680FC5
:100440006093200380E0089581E008950895E0918D
:100450004A0380914903E81730F4F0E0EF58FC4F6D
:10046000808190E008958FEF9FEF089590914A0367
:10047000809149032FEF3FEF981748F4E92FF0E000
:10048000EF58FC4F208130E09F5F90934A03C901F1
:1004900008958091490390914A03891B990B08950F
:1004A000CF92DF92EF92FF920F931F93CF93DF9340
:1004B0007C01CB018A0120919A03222389F0EB0170
:1004C0006B01C40ED51ECC15DD0569F06991D7010D
:1004D000ED91FC910190F081E02DC7011995F3CFCA
:1004E000642F0E94FF01C801DF91CF911F910F91EE
:1004F000FF90EF90DF90CF900895CF93DF931F92FE
:10050000CDB7DEB7698320919A032223F9F02091B9
:100510009703203258F021E030E0FC01338322833E
:1005200090E080E00F90DF91CF9108958091980343
:10053000E82FF0E0E152FD4F998190838F5F809327
:1005400098038093970381E090E0ECCF61E0CE01C7
:1005500001960E94FF01F7CF682F8BEA93E00C947D
:100560007D028150823108F05AC0E82FF0E08827E0
:10057000E354FD4F8F4F0C94991FDD02E102CF022F
:10058000D502D9020F03E402EA02EE02F402F802F5
:10059000FC02020306030F030A03100314038091F5
:1005A00080008F77809380000895809180008F7DF8
:1005B000F9CF80918000877FF5CF84B58F7784BD98
:1005C000089584B58F7DFBCF8091B0008F778093A5
:1005D000B00008958091B0008F7DF9CF8091900098
:1005E0008F77809390000895809190008F7DF9CF50
:1005F00080919000877FF5CF8091A0008F778093C6
:10060000A00008958091A0008F7DF9CF8091A00077
:10061000877FF5CF809120018F7780932001089507
:10062000809120018F7DF9CF80912001877FF5CFC8
:10063000CF93DF93282F30E0F901E75BFC4F8491E3
:10064000F901ED5FFC4FD491F901E354FD4FC491E2
:10065000CC23A1F081110E94B102EC2FF0E0EE0F4B
:10066000FF1FED55FD4FA591B491EC91ED2381E075
:1006700090E009F480E0DF91CF91089580E090E070
:10068000FACF1F93CF93DF93282F30E0F901E75B78
:10069000FC4F8491F901ED5FFC4FD491F901E354D3
:1006A000FD4FC491CC23A9F0162F81110E94B102F5
:1006B000EC2FF0E0EE0FFF1FE757FD4FA591B4912F
:1006C0008FB7F894EC91111108C0D095DE23DC931C
:1006D0008FBFDF91CF911F910895DE2BF8CF1F932D
:1006E000CF93DF93C82F162F882339F080911802FB
:1006F0008230A9F5D0E0C130A1F4809116028F3F7D
:1007000059F00E941803019739F460E080911602B5
:100710000E944103D1E001C0D0E0809118028230F4
:10072000D1F4CD7FC1F4809117028F3FA1F00E94D8
:100730001803019781F460E0809117020E94410341
:10074000112369F080911902882369F08BEB92E103
:100750000197F1F704C0112311F0D111F3CFDF910C
:10076000CF911F9108958BE193E0F2CF1092910306
:1007700081E08093700310926B0361E084E10E943A
:10078000410361E085E10E944103E9EBF0E08081F3
:100790008E7F808380818D7F808388E48093B80002
:1007A00085E48093BC000895CF93DF9391E090930C
:1007B000FF028823B9F0C091B800D091BA008091AF
:1007C000BC008A7B8093BC0060E084E10E9441030E
:1007D00060E085E10E9441030E94B603D093BA0015
:1007E000C093B800DF91CF910895CF93DF9390E04D
:1007F000FC01ED5FFC4F249183549D4FFC018491DB
:100800008823D1F090E0880F991FFC01E159FD4F3A
:10081000A591B491FC01E757FD4FC591D4916111A9
:100820000EC09FB7F8948C91E22FE0958E238C93A5
:100830002881E223E8839FBFDF91CF9108958FB78E
:10084000F894EC91E22BEC938FBFF6CF80911602D7
:100850008F3F31F060E00E94F5038FEF8093160226
:10086000809117028F3F31F060E00E94F5038FEF17
:1008700080931702109218020895863308F0865369
:1008800020917B00982F9870277F922B90937B006C
:100890008770806480937C0080917A00806480936C
:1008A0007A0080917A0086FDFCCF8091780090914B
:1008B000790008953FB7F8948091DB029091DC02B3
:1008C000A091DD02B091DE0226B5A89B05C02F3FA6
:1008D00019F00196A11DB11D3FBFBA2FA92F982F66
:1008E0008827BC01CD01620F711D811D911D42E061
:1008F000660F771F881F991F4A95D1F708957F9239
:100900008F929F92AF92BF92CF92DF92EF92FF921F
:100910000F931F93CF93DF937C01C62FD42F809129
:100920000E0290910F02892B39F080910D028130D7
:1009300089F0823009F482C0DF91CF911F910F912D
:10094000FF90EF90DF90CF90BF90AF909F908F90EF
:100950007F900895162F80911002181718F5C12E58
:10096000D12C8091130290911402F601EE0FFF1F1B
:10097000EE0DFF1D91838083E0910E02F0910F0236
:10098000EC0DFD1D61E080810E94F503E0910E02F7
:10099000F0910F02EC0DFD1D61E080810E9441038A
:1009A0001D0FD9CF83E290E00197F1F7F8940E94F0
:1009B0005A044B011C2F80911002181760F4E0912B
:1009C0000E02F0910F02E10FF11D60E080810E94A4
:1009D000F5031D0FF0CF7894D12CC12C8091130218
:1009E00090911402C816D90608F0A6CFF8940E9478
:1009F0005A046B01C818D9087C2E80911002781611
:100A0000D8F4072D10E0E0910E02F0910F02E00FF4
:100A1000F11F80810E941803892B61F4000F111FC0
:100A2000F701E00FF11F80819181C816D90610F4FB
:100A3000D182C0827D0EE1CF7894D0CF862F909165
:100A40001002891750F4E82FF0E0EE0FFF1FEE0DB3
:100A5000FF1D118210828D0FF2CFC12C80911502E3
:100A6000C816F8F4DC2E80911002D816C0F40D2DB3
:100A700010E0E0910E02F0910F02E00FF11F808173
:100A80000E943D04000F111FF701E00FF11F2081AC
:100A90003181820F931F91838083DD0EE4CFC39455
:100AA000DDCF80911002C81708F046CFEC2FF0E0A0
:100AB000EE0FFF1FEE0DFF1D6091150270E0CB01E0
:100AC0009595879520813181820F931F0E94851F04
:100AD00071836083CD0FE5CFCF92DF92EF92FF92CB
:100AE0000F931F93CF93DF93D82FC62F613208F057
:100AF00098C00E945A046B017C018091910381117E
:100B00006BC081E080939103809370039FEF90937B
:100B10006F0310926E039C0F90936D0380936C0390
:100B200080916C03DD0FD82BD0936C0380916B0305
:100B3000813009F078C010926B030E945A046B0157
:100B40007C0180916C038093BB0080919303909112
:100B50009403A0919503B0919603892B8A2B8B2B3C
:100B6000A1F00E945A0400919303109194032091E4
:100B70009503309196036C197D098E099F0906171C
:100B800017072807390708F448C08091BC0083FD87
:100B9000D8CF85EC8093BC000E945A046B017C0185
:100BA00080919103813009F440C080916E038C17CD
:100BB00010F4C0916E03EBE4F3E0A1E7B3E080E052
:100BC0008C1355C08C2FDF91CF911F910F91FF9007
:100BD000EF90DF90CF9008958091930390919403CC
:100BE000A0919503B0919603892B8A2B8B2B09F446
:100BF00084CF0E945A040091930310919403209192
:100C00009503309196036C197D098E099F0906178B
:100C100017072807390708F070CF809192030E94C8
:100C2000D403C0E0CFCF85EEB5CF809193039091F0
:100C30009403A0919503B0919603892B8A2B8B2B5B
:100C400009F4AECF0E945A040091930310919403CB
:100C500020919503309196036C197D098E099F09A7
:100C6000061717072807390708F09ACFD6CF9191B2
:100C70009D938F5FA5CFCF92DF92EF92FF920F935C
:100C80001F93CF93DF93D091970381E0D13208F087
:100C90009CC0C09199030E945A046B017C01809111
:100CA000910381116CC082E08093910381E0809375
:100CB00070038FEF80936F0310926E03D0936D03D8
:100CC000AFEDB2E0EBE4F3E080E0D8138DC010921A
:100CD0006C0380916C03CC0FC82BC0936C03809184
:100CE0006B03813009F084C010926B030E945A0498
:100CF0006B017C0180916C038093BB008091930316
:100D000090919403A0919503B0919603892B8A2B1F
:100D10008B2BA1F00E945A0400919303109194032D
:100D200020919503309196036C197D098E099F09D6
:100D3000061717072807390708F442C08091BC003E
:100D400083FDD8CF85EC8093BC000E945A046B01D0
:100D50007C0180919103823009F44CC080916F0333
:100D60008F3F09F469C080916F03803209F466C037
:100D700080916F03803309F463C084E026C08091C2
:100D8000930390919403A0919503B0919603892BBE
:100D90008A2B8B2B09F483CF0E945A040091930372
:100DA0001091940320919503309196036C197D095D
:100DB0008E099F09061717072807390708F06FCF14
:100DC000809192030E94D40385E0109298031092C0
:100DD000970310929A03DF91CF911F910F91FF908B
:100DE000EF90DF90CF9008959D9191938F5F6DCF9D
:100DF00085EEA9CF8091930390919403A0919503E0
:100E0000B0919603892B8A2B8B2B09F4A2CF0E94D9
:100E10005A0400919303109194032091950330910B
:100E200096036C197D098E099F0906171707280775
:100E3000390708F08ECFC4CF80E0C7CF82E0C5CF9E
:100E400083E0C3CF0F931F93CF93DF93162F072F0A
:100E5000CFE5D7E0AA85BB859C8521E020939A0346
:100E6000909399031092980310929703ED91FC913F
:100E700011970190F081E02D682FCD0119958A8599
:100E80009B85DC01ED91FC910190F081E02D602FBC
:100E900019958A859B85DC01ED91FC910190F0818B
:100EA000E02D612F19958A859B85DF91CF911F9148
:100EB0000F910C943B06CF93C42F91E090939A032B
:100EC00099E2909399031092980310929703806887
:100ED00090E00E94AC026C2F8BEA93E00E947D02AE
:100EE0008BEA93E0CF910C943B068F929F92AF9246
:100EF000BF92CF92DF92EF92FF924B015C010E9472
:100F00005A046B017C010E945A046C197D098E09F8
:100F10009F09683E734081059105A8F321E0821A7C
:100F20009108A108B10888EEC80E83E0D81EE11C24
:100F3000F11C81149104A104B10429F7FF90EF90F2
:100F4000DF90CF90BF90AF909F908F900895AF9219
:100F5000BF92CF92DF92EF92FF920F931F93CF93A6
:100F6000DF936C017B018B01040F151FEB015E0108
:100F7000AE18BF08C017D10759F06991D601ED919D
:100F8000FC910190F081E02DC6011995892B79F72C
:100F9000C501DF91CF911F910F91FF90EF90DF90EE
:100FA000CF90BF90AF900895FC01A089B1898C913A
:100FB000A689B78982FD0FC09C91818D8F5F8F7349
:100FC000228D821749F0A18DAE0FBF2FB11D5D9606
:100FD0009C93818F08958C910895FC01538D448DCD
:100FE000252F30E0842F90E0821B930B541710F0D4
:100FF000CF96089501970895FC01918D828D9817E1
:1010000061F0A28DAE0FBF2FB11D5D968C91928DB8
:101010009F5F9F73928F90E008958FEF9FEF0895E9
:10102000FC01918D828D981731F0828DE80FF11DB2
:10103000858D90E008958FEF9FEF0895FC01918DCD
:10104000228D892F90E0805C9F4F821B91098F73C6
:101050009927089587EB93E00E941E0821E0892BD1
:1010600009F420E0822F089584E594E00E941E0890
:1010700021E0892B09F420E0822F089581EF94E08C
:101080000E941E0821E0892B09F420E0822F089598
:10109000FC01A48DA80FB92FB11DA35ABF4F2C91ED
:1010A000848D90E001968F739927848FA689B789E4
:1010B0002C93A089B1898C91837080648C93938DDB
:1010C000848D981306C00288F389E02D80818F7D7E
:1010D00080830895EF92FF920F931F93CF93DF9336
:1010E000EC0181E0888F9B8D8C8D98131AC0E88964
:1010F000F989808185FF15C09FB7F894EE89FF8933
:101100006083E889F98980818370806480839FBFD0
:1011100081E090E0DF91CF911F910F91FF90EF90D0
:101120000895F62E0B8D10E00F5F1F4F0F731127E0
:10113000E02E8C8D8E110CC00FB607FCFACFE8891B
:10114000F989808185FFF5CFCE010E944808F1CF53
:10115000EB8DEC0FFD2FF11DE35AFF4FF0829FB78F
:10116000F8940B8FEA89FB8980818062CFCFCF937F
:10117000DF93EC01888D8823B9F0AA89BB89E889BF
:10118000F9898C9185FD03C0808186FD0DC00FB665
:1011900007FCF7CF8C9185FFF2CF808185FFEDCFE3
:1011A000CE010E944808E9CFDF91CF910895F0E089
:1011B000E0E0199480E090E0892B29F00E943E083D
:1011C00081110E94000080E090E0892B49F080E0CE
:1011D00090E0892B29F00E94000081110E940000FC
:1011E0000E94340881110E94D70880E090E0892B8A
:1011F00029F00E942A0881110C94000008958F9212
:101200009F92AF92BF92CF92DF92EF92FF920F9395
:101210001F93CF93DF93EC016A017B0120E030E064
:101220004FE753E4CB01B6010E94581E4B015C010D
:1012300020E030E0A9010E94152118168CF5C501A7
:10124000B4010E9487208B01B98020E030E0A90121
:10125000C701B6010E94152160E018160CF061E08C
:101260008B2D0E9441030F3F110509F0ECF411276B
:10127000C88161E08C2F0E94F50301151105B9F4B6
:1012800060E08C2FDF91CF911F910F91FF90EF9035
:10129000DF90CF90BF90AF909F908F900C944103C0
:1012A000C501B4019058CDCF0FEF10E0E1CF0F3F53
:1012B000110511F461E0E5CFEC2FF0E0E75BFC4FA6
:1012C000E491E150E23108F0BCC0F0E08827E45935
:1012D000F64F8F4F0C94991F7E098F0994099E0930
:1012E000A809210AB209BA09C209CC09D609E0093C
:1012F000EF09F909210A030A0D0A170A84B5806863
:1013000084BD07BDDF91CF911F910F91FF90EF90AA
:10131000DF90CF90BF90AF909F908F90089584B54D
:10132000806284BD08BDEECF80918000806880938C
:1013300080001093890000938800E4CF80918000A2
:1013400080628093800010938B0000938A00DACF34
:101350008091800088608093800010938D000093BE
:101360008C00D0CF8091B00080688093B000009353
:10137000B300C8CF8091B00080628093B00000932A
:10138000B400C0CF8091900080688093900010934B
:10139000990000939800B6CF80919000806280936E
:1013A000900010939B0000939A00ACCF8091900026
:1013B00088608093900010939D0000939C00A2CFC2
:1013C0008091A00080688093A0008091A0008F7B16
:1013D0008093A0001093A9000093A80093CF809160
:1013E000A00080628093A0001093AB000093AA003D
:1013F00089CF8091A00088608093A0001093AD00F9
:101400000093AC007FCF8091200180688093200101
:10141000109329010093280175CF809120018062EB
:101420008093200110932B0100932A016BCF8091B0
:10143000200188608093200110932D0100932C01DE
:1014400061CF003811050CF035CF1ACF8EBD0000EA
:101450000DB407FEFDCF8EB50895CF93DF93EC0159
:1014600060E088810E94410388E90E94260A80E0AA
:101470000E94260A80E00E94260A80E00E94260A36
:1014800080E00E94260A61E088810E9441038BE887
:1014900091E00197F1F760E088810E94410380EEBE
:1014A0000E94260A61E08881DF91CF910C9441036C
:1014B000AF92BF92CF92DF92EF92FF920F931F9362
:1014C000CF93DF93CDB7DEB760970FB6F894DEBF4A
:1014D0000FBECDBF6C0160E0FC0180810E94410322
:1014E00080E60E94260A9E012F5F3F4F79015E0130
:1014F00031E1A30EB11C870180E00E94260A90E032
:10150000B0E0A0E0F80181939193A193B1938F0192
:10151000EA15FB0589F761E0F60180810E9441032D
:1015200080E090E0DC01F70141915191619171916E
:101530007F01BA2FA92F982F8827840F951FA61FE8
:10154000B71FE017F10779F79C01AD0166277727F0
:10155000CB01621B730B840B950B60960FB6F8944E
:10156000DEBF0FBECDBFDF91CF911F910F91FF90D6
:10157000EF90DF90CF90BF90AF900895CF92DF9221
:10158000EF92FF92CF93DF93DC01EC91EC3008F007
:101590004EC0CE2FD0E0B5E0EB9FF0011124E05A11
:1015A000F94F838158E8C52ED12CC81AD10887FD80
:1015B000D394CC0CDD1CCC0CDD1C683C71050CF00C
:1015C0003DC00D2C000CEE08FF08848128E532E0B8
:1015D000281B310987FD3395220F331F220F331F3C
:1015E000032E000C440B550B2C193D094E095F09C5
:1015F000DB010E94401F24EB30E040E050E00E94FD
:10160000161FC20ED31EE41EF51E8FB7F89495E088
:101610009C9FF0019D9FF00D1124E05AF94F96E038
:10162000C91AD108CC0CDD1CD282C1828FBFDF91D8
:10163000CF91FF90EF90DF90CF9008956C157D05CE
:1016400024F3848128E5C22E22E0D22EC81AD108C4
:1016500087FDD394CC0CDD1CCC0CDD1C6C157D05FA
:10166000A4F66B01D2CF1F93CF93DF93EC01162F1B
:1016700088818C3008F046C061E0812F0E94F5031C
:10168000888195E0899FF0011124E05AF94F1F737A
:101690006081607C612B6083138214822CE0622F56
:1016A0000E94791F829FB001112430E020E095E074
:1016B000AB01420F531F949FF001959FF00D112431
:1016C000E05AF94F408146FD13C02F5F3F4F2C3049
:1016D000310571F781110CC01092800082E0809377
:1016E0008100109285001092840086BB80936F0069
:1016F000E88185E0E89FF0011124E05AF94F8081EC
:10170000806480838881DF91CF911F910895FC01CF
:10171000248131E030939A03209399031092980327
:10172000109297038485862B90E00E94AC028BEA8E
:1017300093E00C943B06089590E080E00895CF92EA
:10174000DF92EF92FF92CF93DF93C82F809119021F
:10175000882369F08C2F0E941803019741F460E000
:101760008C2F0E9441038BEB92E10197F1F761E02E
:101770008C2F0E9441030E945A046B018091190230
:101780008823A9F080911A02882389F0F894D0E088
:1017900080911A02D81750F460E08C2F0E94410308
:1017A00061E08C2F0E944103DF5FF2CF7894C60185
:1017B000DF91CF91FF90EF90DF90CF9008950F933E
:1017C0001F93CF93DF93C82F882359F1809118027C
:1017D000823029F1D0E0809118028230D1F5CD7F9E
:1017E000C1F5809117028F3FA1F1909119029923C1
:1017F00061F1809117020E949F0B8C018091190268
:10180000882371F1C3E2D0E00E945A04601B710B7F
:101810006C32714000F5CE010197F1F7F5CFC13080
:10182000C9F6809116028F3FA9F29091190299236F
:1018300039F0809116020E949F0B8C01D1E0CBCF32
:101840000E941803892BA9F3C5CF0E941803892B86
:1018500081F2D111D3CFDF91CF911F910F910895D4
:101860008BE193E00197F1F7F6CF7F928F929F92F1
:10187000AF92BF92CF92DF92EF92FF920F931F939E
:10188000CF93DF9380910302882309F446C080E060
:101890000E94DF0B41E060E08BE993E00E947F044F
:1018A00061E080E00E946F03C0901002CBE9D3E0BA
:1018B000E0900602F09007020091040210910502E8
:1018C000D12CCD1451F1D701ED91FD917D01D801BD
:1018D0008D919D918D01E81BF90BC9F0288139810B
:1018E00050E040E0281B390B41095109A8EEB3E054
:1018F0000E94351F9F0150E040E00E94161F293EC4
:10190000B3E03B0714F028EE33E037FF02C030E0CD
:1019100020E029933993D394D4CF909010020BE90F
:1019200013E0D0E0C0E0812C50E040E0C12CD12C8D
:101930007601712C88EEA82E83E0B82E9814F1F071
:10194000F801819191918F01F501E81BF90BE93CB8
:10195000F10588F4E333F10550F09F01DE010E94A8
:10196000A11FC60ED71EE81EF91E4E0F5F1F8394DF
:10197000C851DC4FE3CF77247394EFCF71102BC0A5
:10198000892D8150990B9C0144EF51E0249FC001A7
:10199000259F900D349F900D112440911B02509172
:1019A0001C024817590720F148EE53E0249FC0015C
:1019B000259F900D349F900D1124DF91CF911F91A1
:1019C0000F91FF90EF90DF90CF90BF90AF909F90DE
:1019D0008F907F9008959A0150E040E0C701B601D2
:1019E0000E94481FC90130931C0220931B02E5CFBF
:1019F00090E080E0E2CFCF92DF92EF92FF924AE94F
:101A000059E969E97EE388E797E00E94FF088CE7DF
:101A100097E00E94580A97FF39C08CE797E00E9430
:101A2000580ACC24DD247601C61AD70AE80AF90A36
:101A30008EE797E00E94580A161617061806190630
:101A400064F58EE797E00E94580AA7019601261BCD
:101A5000370B480B590BCA01B9010E94F91D2AE046
:101A600037ED43E25BE30E94581E2AE939E949E970
:101A70005EE30E94A91FAB01BC0170588AE797E0A2
:101A8000FF90EF90DF90CF900C94FF088CE797E0E9
:101A90000E94580A6B017C01CBCF8EE797E00E9431
:101AA000580A90958095709561957F4F8F4F9F4F05
:101AB000CCCFCF93DF9391E090939A0399E29093E8
:101AC00099031092980310929703806890E00E9407
:101AD000AC028BEA93E00E943B0662E089E20E943E
:101AE0006C0510924A03809349038BEA93E00E94AD
:101AF0003602EC018BEA93E00E94360220E0382F98
:101B0000CE01822B932BDF91CF91089591E090939A
:101B10009A0399E290939903109298031092970375
:101B2000806890E00E94AC028BEA93E00E943B0642
:101B300061E089E20E946C0510924A038093490398
:101B40008BEA93E00E9436020895CF93DF931092C0
:101B50004A031092490310929803109297030E942F
:101B6000B6038DEF91E090934603809345038EEF8B
:101B700091E0909348038093470382E10E94860D91
:101B8000843411F08031E1F581E080939607C091B3
:101B90009907D0919A07AE0170E060E00E945B0760
:101BA000D0939A07C0939907C0919707D09198074F
:101BB00080919607811102C00E94A50DAE0170E0D0
:101BC00060E08FE00E945B07D0939807C09397076F
:101BD00041E050E060E070E080E00E945B0763E07D
:101BE00070E080E090E00E94750743E050E060E024
:101BF00070E080E00E945B0781E0DF91CF91089563
:101C000080E0FBCF0F931F93CF938C01C62F6460AE
:101C10000E94870B6C2F6B7FC8010E94870B83EC9F
:101C200090E00197F1F7CF911F910F9108950F93D5
:101C30001F93CF93DF938C01C62FD62FD07FD16017
:101C40006D2F0E94870B6D2FC8010E94020E80E14C
:101C5000C89FE0011124C1606C2FC8010E94870B4E
:101C60006C2FC8010E94020E81E090E0DF91CF91BD
:101C70001F910F9108958F929F92AF92BF92CF9232
:101C8000DF92EF92FF920E94350C6CEA7DE0681BB8
:101C9000790B072E000C880B990B0E94F91D6B0124
:101CA0007C012091BF023091C0024091C10250914D
:101CB000C2020E94A81F20E030E0A9010E94581E25
:101CC0004B015C012FE632E143E05BE3C701B60163
:101CD0000E94581E9B01AC01C501B4010E94A91FBE
:101CE0000E948720C092BF02D092C002E092C1023F
:101CF000F092C202072E000C880B990B0E94F91D6E
:101D00004B015C01AC019B016AE979E989E99EE339
:101D10000E94A81F6B017C0120E030E0A9010E9415
:101D2000F21D87FD33C02AE939E949E95EE3C701BD
:101D3000B6010E94152118166CF1B701A60188E7BB
:101D400097E00E94FF082AE939E949E95EE3C50105
:101D5000B4010E94A91F6B017C0120E030E0A901C1
:101D60000E94F21D87FD1EC02AE939E949E95EE3B8
:101D7000C701B6010E9415211816BCF48AE9C82EC5
:101D800089E9D82EED2C8EE3F82E0FC0C12CD12C72
:101D90007601D3CF9AE9C92E99E9D92EED2C9EE38D
:101DA000F92ECBCFC12CD12C7601B701A6017058EA
:101DB0008AE797E0FF90EF90DF90CF90BF90AF90D1
:101DC0009F908F900C94FF0840E050E0BA0188E7A4
:101DD00097E00E94FF0840E050E060E070E88AE78A
:101DE00097E00C94FF088CE797E00E942D0A8EE79D
:101DF00097E00C942D0ACF92DF92EF92FF92BC01F4
:101E0000990F880B990B0E94F91D20E030E048E4FF
:101E100055E40E94581E22E133E84FEB51E40E9442
:101E200015200E948E206B017C010E94F30E80E041
:101E300090E0DC018C159D05AE05BF0580F40E9485
:101E4000FB0C8CE797E00E94580A9B01AC018827A5
:101E50009927DC01821B930BA40BB50BEBCF0E94DF
:101E6000E40E64E670E080E090E00E947507FF9069
:101E7000EF90DF90CF900C94F30EFC0101900020C6
:101E8000E9F73197AF01481B590BBC0181EF94E092
:101E90000C94A7078F929F92AF92BF920F931F93BC
:101EA000CF93DF93CDB7DEB7A1970FB6F894DEBF1F
:101EB0000FBECDBF19A2423008F44AE08E010F5D7B
:101EC0001F4F842E912CB12CA12CA50194010E94AE
:101ED000481FE62FB901CA01EA30F4F4E05DD801E9
:101EE000EE938D01232B242B252B79F790E080E0B6
:101EF000109719F0CD010E943D0FA1960FB6F894EE
:101F0000DEBF0FBECDBFDF91CF911F910F91BF906C
:101F1000AF909F908F900895E95CE1CFCF93DF93CE
:101F20000E943D0FEC0183E692E00E943D0F8C0F72
:101F30009D1FDF91CF910895CF93DF93EC0169EB63
:101F4000681B80918A07681720F080918B0786179D
:101F500090F486E692E00E948E0F80918A07C8175F
:101F600020F080918B078C1760F486E692E0DF9179
:101F7000CF910C948E0F70E080E997E00E94BE0A2A
:101F8000ECCFBE0181E997E0DF91CF910C94BE0ABE
:101F90008F929F92AF92BF92CF92DF92EF92FF9279
:101FA0000F931F93CF93DF93CDB7DEB7C85FD109EF
:101FB0000FB6F894DEBF0FBECDBF8C01D62EDC016C
:101FC0008C91811157C01396ED90FC906091100296
:101FD00070E0660F771FC7010E94B623F801948353
:101FE0008383892BB9F4C7010E942D23C850DF4F8A
:101FF0000FB6F894DEBF0FBECDBFDF91CF911F911A
:102000000F91FF90EF90DF90CF90BF90AF909F9097
:102010008F900895E180F2806091100270E0660F69
:10202000771FC7010E94B623AC01F8019283818318
:1020300090E041155105B9F2809110029817B8F45B
:10204000292F30E0220F331FD8011396ED91FC9118
:10205000E20FF31F1182108260911302709114023B
:10206000240F351FF901718360839F5FE5CF81E005
:10207000D8018C93C12C43E2E42EF12CB1E0DB16A5
:1020800038F0E2E0ED15D0F5F3E0DF1609F46DC0AD
:1020900061E080E00E946F0341E060E0CE01855482
:1020A0009F4F0E947F04A09010024E018FE3880E84
:1020B000911CFE01E358FF4F9E0125543F4FB12C68
:1020C000AF01AB1409F4A1C0D9018D919D919D017F
:1020D000CC2009F492C0608171816817790708F4F7
:1020E0008CC0D4016D917C918617970708F489C044
:1020F000B394B2E08B0E911C3296E3CF80E00E9445
:10210000DF0B41E060E0CE0185549F4F0E947F04C9
:1021100061E080E00E946F03A2E0DA12C4CF41E0E8
:1021200060E0CE0101960E947F0470911002209120
:10213000130230911402FE01E554FF4FDE011196A7
:1021400060E0761709F4AFCF4D915D918081918168
:10215000820F931F841B950B2817390708F44AC078
:10216000918380836F5F3296ECCF60E082E00E94C3
:102170006F030E945A044B0181E00E94DF0B8091A3
:102180001902882359F00E945A0468197909603BA2
:10219000744020F4C7010197F1F7F5CF42E060E009
:1021A000CE0185549F4F0E947F0460E081E00E9431
:1021B0006F030E945A044B0182E00E94DF0B809162
:1021C0001902882359F00E945A0468197909603B62
:1021D000744020F4C7010197F1F7F5CF42E061E0C8
:1021E000CE0185549F4F0E947F0461E080E00E94F1
:1021F0006F0359CF31832083B5CF91838083C11082
:1022000070CFD4018D939C9373CFC394EAE0CE1228
:1022100035CF20E080911002281708F0E7CE822FFA
:1022200090E0880F991FE1E0F0E0EC0FFD1FE80F50
:10223000F91F66AD77ADD8011396ED91FC91E80FCB
:10224000F91FA081B181A617B70710F471836083CD
:10225000FA01E80FF91F60817181D8011196ED91A3
:10226000FC91E80FF91F808191816817790710F4BC
:10227000718360832F5FCECF85ED8093BC0080910A
:10228000930390919403A0919503B09196030796C0
:10229000A11DB11D23E0B695A795979587952A9521
:1022A000D1F72091BC0024FD03C010929103089542
:1022B000409193035091940360919503709196031C
:1022C000452B462B472B69F30097A105B10541F03B
:1022D00025E32A95F1F700000197A109B109E1CFA3
:1022E000809192030C94D403BC01990F880B990B35
:1022F0000E94F91D2BED3FE049E450E40E94581E76
:102300002AE939E949E151E40E94581E20E030E011
:1023100048E455E40E94581E29E238EA46E855E4AC
:102320000E9415200E94BD200E948E200895CF9209
:10233000DF92EF92FF920E9474116B017C010E9468
:10234000F30E80E090E0DC018C159D05AE05BF0525
:10235000F0F44AE959E969E97EE388E797E00E94E9
:10236000FF084AE959E969E97EE38AE797E00E94B4
:10237000FF088CE797E00E94580A9B01AC01882770
:102380009927DC01821B930BA40BB50BDDCF0E94B8
:10239000E40E64E670E080E090E00E947507FF9034
:1023A000EF90DF90CF900C94F30ECF92DF92EF92EC
:1023B000FF920E9474116B017C010E94F30E60E099
:1023C00070E0CB016C157D058E059F05A8F44AE9E8
:1023D00059E969E97EEB88E797E00E94FF084AE93E
:1023E00059E969E97EEB8AE797E00E94FF088EE7EA
:1023F00097E00E94580AE6CF0E94E40E64E670E07F
:1024000080E090E00E947507FF90EF90DF90CF9002
:102410000C94F30E1F920F920FB60F9211240F908F
:102420000FBE0F901F9018951F920F920FB60F922C
:1024300011240BB60F922F933F934F935F936F939B
:102440007F938F939F93AF93BF93EF93FF9380916D
:10245000B900887F803609F44DC008F040C088324A
:1024600009F4A9C028F5803109F49DC0C8F4882377
:1024700009F4FBC0883009F496C0FF91EF91BF9139
:10248000AF919F918F917F916F915F914F913F910C
:102490002F910F900BBE0F900FBE0F901F901895AD
:1024A000883109F488C0803241F780936F0314C0EB
:1024B000803409F49DC040F48033B9F38833E9F6E1
:1024C00080936F0385ECB0C0803509F485C08835F2
:1024D00009F496C0883489F60E943C11CECF883921
:1024E00009F48CC038F5883729F050F4883611F09B
:1024F000803719F683E0809391031092420357C00E
:10250000883809F47BC0803919F0803809F0B5CFDC
:1025100080914203803208F071C0E091420381E073
:102520008E0F809342038091BB00F0E0EE5DFC4F84
:1025300080833DC0803B39F0E0F4803A09F479C0F3
:10254000883A09F09ACF84E0809391031092210396
:1025500010922003E0914503F09146031995809174
:10256000200381110FC081E08093200310920003AB
:1025700009C0803C09F4A6CF883C09F4A3CF883B6E
:1025800009F07BCFE091210381E08E0F809321033E
:10259000F0E0E050FD4F80818093BB0090912103DB
:1025A0008091200329C080916C038093BB0085EC4F
:1025B0008093BC0062CF90916E0380916D03981759
:1025C00058F5E0916E0381E08E0F80936E03F0E08A
:1025D000E55BFC4F8081E9CFE0916E0381E08E0FD7
:1025E00080936E038091BB00F0E0E55BFC4F80833D
:1025F00090916E0380916D039817C8F285E8D8CF4B
:10260000E0916E0381E08E0F80936E038091BB009A
:10261000F0E0E55BFC4F80838091700381115CCF1B
:1026200081E080936B0384EA8093BC001092910355
:1026300024CF85EC8093BC001092910380914203DB
:10264000803230F4E0914203F0E0EE5DFC4F108206
:102650006091420370E0E0914703F091480382E209
:1026600093E019951092420308CF10926F0334CF74
:102670001F920F920FB60F9211242F933F938F93B7
:102680009F93AF93BF938091D7029091D802A0916E
:10269000D902B091DA023091D60223E0230F2D3710
:1026A00058F50196A11DB11D2093D6028093D70243
:1026B0009093D802A093D902B093DA028091DB0202
:1026C0009091DC02A091DD02B091DE020196A11D85
:1026D000B11D8093DB029093DC02A093DD02B093E6
:1026E000DE02BF91AF919F918F913F912F910F90FB
:1026F0000FBE0F901F90189526E8230F0296A11D7C
:10270000B11DD2CF1F920F920FB60F9211240BB6AC
:102710000F922F933F934F935F936F937F938F937A
:102720009F93AF93BF93EF93FF938091C5029091D6
:10273000C602A091C702B091C802892B8A2B8B2BAD
:10274000D1F19091C402809100008927809300000C
:102750008091C5029091C602A091C702B091C802B3
:10276000181619061A061B069CF48091C502909152
:10277000C602A091C702B091C8020197A109B10990
:102780008093C5029093C602A093C702B093C8027B
:10279000FF91EF91BF91AF919F918F917F916F9139
:1027A0005F914F913F912F910F900BBE0F900FBEF5
:1027B0000F901F90189580910002EEE6F2E0E491F0
:1027C0009FEF90930002E230E9F040F4EE2389F0AD
:1027D000E13091F060E00E944103DACFE43049F14A
:1027E00010F1E530B9F7909173009D7F90937300DD
:1027F000F1CF10926E00EECF90916F009D7F90937D
:102800006F00E8CF909170009D7F9093700091E0F1
:102810009093B0009091B100987F94609093B10034
:102820001092B300D7CF909171009D7F909371006B
:10283000D1CF909172009D7F90937200CBCF1F9269
:102840000F920FB60F9211240BB60F922F933F9356
:102850004F935F936F937F938F939F93AF93BF93A8
:10286000EF93FF9387EB93E00E944808FF91EF916D
:10287000BF91AF919F918F917F916F915F914F9198
:102880003F912F910F900BBE0F900FBE0F901F9096
:1028900018951F920F920FB60F9211240BB60F923C
:1028A0002F933F934F935F936F937F938F939F9358
:1028B000AF93BF93EF93FF9387EB93E00E94D4070E
:1028C000FF91EF91BF91AF919F918F917F916F9108
:1028D0005F914F913F912F910F900BBE0F900FBEC4
:1028E0000F901F9018951F920F920FB60F92112400
:1028F0000BB60F922F933F934F935F936F937F93FA
:102900008F939F93AF93BF93EF93FF9384E594E0EE
:102910000E944808FF91EF91BF91AF919F918F91D5
:102920007F916F915F914F913F912F910F900BBECF
:102930000F900FBE0F901F9018951F920F920FB619
:102940000F9211240BB60F922F933F934F935F93E7
:102950006F937F938F939F93AF93BF93EF93FF9367
:1029600084E594E00E94D407FF91EF91BF91AF916D
:102970009F918F917F916F915F914F913F912F9197
:102980000F900BBE0F900FBE0F901F9018951F92C7
:102990000F920FB60F9211240BB60F922F933F9305
:1029A0004F935F936F937F938F939F93AF93BF9357
:1029B000EF93FF9381EF94E00E944808FF91EF911D
:1029C000BF91AF919F918F917F916F915F914F9147
:1029D0003F912F910F900BBE0F900FBE0F901F9045
:1029E00018951F920F920FB60F9211240BB60F92EB
:1029F0002F933F934F935F936F937F938F939F9307
:102A0000AF93BF93EF93FF9381EF94E00E94D407BD
:102A1000FF91EF91BF91AF919F918F917F916F91B6
:102A20005F914F913F912F910F900BBE0F900FBE72
:102A30000F901F9018951F920F920FB60F921124AE
:102A40000BB60F922F933F934F935F936F937F93A8
:102A50008F939F93AF93BF93EF93FF9380918F05D5
:102A60000E94180320919305309194052F5F3F4FEA
:102A7000309394052093930590919205953618F024
:102A800096E090938E0590918E05943009F466C07F
:102A9000B8F49230F1F0933009F444C0909191056C
:102AA000992309F46BC081117CC080919005882323
:102AB00009F463C08091900561E00E9441035EC00B
:102AC000953009F457C0963049F791E090935F062E
:102AD0004FC08111E3CF20919305309194052436A6
:102AE000310528F41092940510929305D7CF1092D7
:102AF0005F0610929205E091920591E09E0F9093EF
:102B00009205F0E02091930530919405EE0FFF1FA0
:102B1000E257FA4F3087278310929405109293055D
:102B200093E019C0813009F0B9CFE091920591E0AE
:102B30009E0F90939205F0E02091930530919405BB
:102B4000EE0FFF1FE257FA4F30872783109294054C
:102B50001092930594E090938E05A0CF882359F2AC
:102B600020919305309194052536310508F496CFD0
:102B700095E0F1CF811192CFB5CF2F9AFF91EF91D0
:102B8000BF91AF919F918F917F916F915F914F9185
:102B90003F912F910F900BBE0F900FBE0F901F9083
:102BA000189580919005882321F08091900560E030
:102BB00084CF2F98E3CF1F920F920FB60F9211245C
:102BC0000BB60F922F933F934F935F936F937F9327
:102BD0008F939F93AF93BF93CF93DF93EF93FF9325
:102BE0008091C302C0919C06D0E087FF23C0109261
:102BF0008500109284008091C3028F5F8093C3028E
:102C00008091C302082E000C990B8C179D0724F4A9
:102C10008091C3028C3074F1809184009091850082
:102C200084349C4908F465C08091840090918500AB
:102C3000049661C08091C302082E000C990B8C177A
:102C40009D07CCF63091C30225E03203F001112438
:102C5000E05AF94F808186FFCECF3091C302320314
:102C6000F0011124E05AF94F808160E08F730E94D7
:102C70004103C1CF80918400909185003091C302BF
:102C800025E03203F0011124E05AF94F41815281CD
:102C9000840F951F90938900809388003091C30220
:102CA0003203F0011124E05AF94F808186FF0CC0F5
:102CB0003091C3023203F0011124E05AF94F8081B0
:102CC00061E08F730E944103FF91EF91DF91CF91FB
:102CD000BF91AF919F918F917F916F915F914F9134
:102CE0003F912F910F900BBE0F900FBE0F901F9032
:102CF000189580E49CE990938900809388008FEF79
:102D00008093C302E1CF0E94260480910E0290912D
:102D10000F02009711F00E942D23809106029091DE
:102D20000702009711F00E942D2380910B029091D1
:102D30000C02009711F00E942D23809104029091C3
:102D40000502009711F00E942D23809109029091B5
:102D50000A02009711F00E942D2380919B07909109
:102D60009C07009711F00C942D2308951092AE0348
:102D70001092AD0388EE93E0A0E0B0E08093AF0343
:102D80009093B003A093B103B093B20327E332E072
:102D90003093AC032093AB031092BA031092B903A3
:102DA0008093BB039093BC03A093BD03B093BE0379
:102DB00029E432E03093B8032093B70345E351E0B0
:102DC0005093C4034093C30344E351E05093C603BC
:102DD0004093C50340E351E05093C8034093C703B9
:102DE00041E351E05093CA034093C90342E351E0E9
:102DF0005093CC034093CB0346E351E05093CE0372
:102E00004093CD031092D0031092D1031092D203BD
:102E10001092D303109257041092560480935804D2
:102E200090935904A0935A04B0935B0430935504D3
:102E30002093540445ED50E05093610440936004A6
:102E400044ED50E0509363044093620440ED50E041
:102E5000509365044093640441ED50E0509367043F
:102E60004093660442ED50E0509369044093680437
:102E700046ED50E050936B0440936A0410926D0449
:102E800010926E0410926F04109270041092F40469
:102E90001092F3048093F5049093F604A093F70442
:102EA000B093F8043093F2042093F10485EC90E0A1
:102EB0009093FE048093FD0484EC90E090930005D1
:102EC0008093FF0480EC90E09093020580930105CD
:102ED00081EC90E0909304058093030582EC90E0F0
:102EE000909306058093050586EC90E09093080585
:102EF0008093070510920A0510920B0510920C059D
:102F000010920D058091230290912402A091250238
:102F1000B09126028093800790938107A093820747
:102F2000B09383078091270290912802A0912902F3
:102F3000B0912A028093840790938507A093860717
:102F4000B093870784E08093880787E080938907A0
:102F500010928A0784EB80938B0786E180938C071D
:102F600088E180938D0787E180938E0789E18093C4
:102F70008F07E0919C06EC3008F4ABC08FEF809394
:102F80009007E0919C06EC3008F4B4C08FEF80937A
:102F900091078CE080935F0784E28093600786E06E
:102FA0008093610785E0809362078FE180936307D8
:102FB0008EE18093640783E28093650782E28093C9
:102FC000660785E48093670784E48093680780E45C
:102FD00080936B071092700710927107109272071E
:102FE000109273071092740710927507109276076B
:102FF00010927707E1EAF6E08FEF9FEFDC01128293
:103000001382148215821682178210861186838796
:103010009487A587B6878787908BA18BB28B128602
:1030200011821082739627E0EF35F20741F78DE0A9
:1030300090E00E949122FC01138212828BE592E0C3
:1030400091838083118687E2848384E1828784E090
:1030500083871486F0939E06E0939D0610929F0648
:103060001092A00685E280938F0510929105109230
:103070009C0710929B0710929E0710929D0710923A
:10308000A00710929F0761E070E090E080E00E944E
:10309000B623009709F43FC090939C0780939B0749
:1030A00010929E0710929D0720919F073091A007D4
:1030B000232B11F4FC0110821092A00710929F079D
:1030C00065E672E080919B0790919C070E94A02486
:1030D00036C081E08E0F80939C06E093900725E038
:1030E000E29FF0011124E05AF94F88EB9BE09283B4
:1030F000818347CF81E08E0F80939C06E0939107F8
:1031000085E0E89FF0011124E05AF94F88EB9BE03D
:10311000928381833ECF80919B0790919C0700977B
:1031200011F00E942D2310929C0710929B07109281
:10313000A00710929F0710929E0710929D07109271
:1031400096078BEE90E090939A078093990781E021
:1031500090E090939807809397070895789484B5AA
:10316000826084BD84B5816084BD85B5826085BD83
:1031700085B5816085BD80916E00816080936E0011
:103180001092810080918100826080938100809103
:1031900081008160809381008091800081608093B4
:1031A00080008091B10084608093B1008091B00074
:1031B00081608093B0008091910082608093910043
:1031C0008091910081608093910080919000816056
:1031D000809390008091A10082608093A1008091F3
:1031E000A10081608093A1008091A0008160809304
:1031F000A0008091210182608093210180912101B2
:103200008160809321018091200181608093200161
:1032100080917A00846080937A0080917A00826045
:1032200080937A0080917A00816080937A00809107
:103230007A00806880937A001092C100E0910105C5
:10324000F091020582E08083E091FD04F091FE049C
:103250001082E091FF04F09100058FEC80831092C2
:103260000905E0910505F091060586E08083E0916F
:103270000305F0910405808180618083E09103055E
:10328000F0910405808188608083E0910305F091CE
:103290000405808180688083E0910305F091040536
:1032A00080818F7D808361E0809160070E94F503BB
:1032B00060E0809160070E94410360E080915F07B9
:1032C0000E94F5038BEA93E090936A078093690765
:1032D00010924A0310924903109298031092970398
:1032E0000E94B6038DEF91E09093460380934503CF
:1032F0008EEF91E0909348038093470380E090E144
:10330000A0E0B0E080936C0790936D07A0936E07E8
:10331000B0936F078AE090E0A0E0B0E08093700780
:1033200090937107A0937207B093730780E090E0C9
:10333000A0E0B0E48093740790937507A09376079C
:10334000B093770760E070E185E00E9422076FE9A3
:1033500079E380E00E94220701E617E0CFE5D7E09D
:1033600052EFA52E52E0B52E68E3862E63E0962E2E
:103370007BECE72E77E0F72EF801928181918F01A7
:10338000898F9A8F61E00E94F50361E08A8D0E9427
:10339000F5036E01FDE1CF0ED11CF801958183810B
:1033A0008D8F9E8F61E00E94F50360E08E8D0E94FC
:1033B000F50361E08D8D0E9441037FB6F894809102
:1033C000C902811125C0F5018491F4019491E82F7F
:1033D000F0E0EE0FFF1FE159FD4FA591B4918C91E4
:1033E000982321F461E085E30E94410361E085E3D5
:1033F0000E94F5038CB580618CBD8CB580648CBD5A
:1034000061E084E30E94F50361E083E30E94F50339
:103410008091C9028F5F8093C9027FBEC701019767
:10342000F1F760E08D8D0E94410388E80E94260A32
:1034300083E00E94260A61E08D8D0E944103C7014E
:103440000197F1F7C6010E942D0A2296F7E0C336D4
:10345000DF0709F091CFC4E8D7E060E089910E94CE
:10346000F50327E0C838D207C1F76091880770E0FC
:1034700080E997E00E94330B90918E0780918C0732
:10348000809392079093930760E00E94F50361E0B8
:10349000809193070E94F50360E0809193070E945A
:1034A00041036091890770E081E997E00E94330B46
:1034B00090918F0780918D07809394079093950743
:1034C00060E00E94F50361E0809195070E94F5039A
:1034D00060E0809195070E944103F89410922001CA
:1034E00089E08093210180E293E090932901809309
:1034F00028011092250110922401C2E0C0937300AC
:103500007894C0938E051092920580918F0560E0AB
:103510000E94F5036091880770E080E997E00E94BF
:10352000330B6091890770E081E997E00E94330BCB
:103530008EE190E00E949C0F8BE490E00E949C0F33
:103540000E94E40EC0930D028FEF93E0909314025B
:1035500080931302C0910E02D0910F0268E070E0D8
:10356000CE010E94B62390930F0280930E02892B06
:1035700009F05FC0CE010E942D230E94260482E044
:103580008093160261E00E94F50381E080931802A7
:103590006EEE72E080E090E00E947507C0E9D1E035
:1035A00061E083E092E00E94C80F2197C9F761E0D3
:1035B00080E30E94F50361E088E20E94F50361E088
:1035C0008EE20E94F50361E08AE20E94F50383E047
:1035D000C82ED12C92E0A92EB12C88248394912C52
:1035E00034E0232E312C0E94350CBC0190E080E0A9
:1035F0004AE00E944A0F83E692E00E943D0FE0916C
:10360000D402F091D502EC30F10508F0F0C0882723
:10361000E35FF44E8F4F0C94991F311B681BFA1B0C
:10362000551C7E1C911CBA1C721D801D851D241DFD
:10363000B01DABE2B2E090E080E02D91E0910E028F
:10364000F0910F02E80FF91F208301968830910551
:10365000A1F788E0809310021092030210920802F2
:103660008CCF0E943B0E8EE30E943D04EC0181E46E
:103670000E943D048C1B9D0B8436910524F18091A2
:10368000D2029091D30201969093D3028093D202FA
:103690000B9794F00E94E40E61E080E30E944103E6
:1036A00061E08EE20E94410361E08AE20E944103F0
:1036B0009092D5028092D4026AE070E080E090E0BF
:1036C0000E94750794C01092D3021092D202F4CFD8
:1036D0000E943B0E809183070E943D04BC01990F1C
:1036E000880B990B0E94F91D26EC31E843EA5FEB49
:1036F0000E941A212AE736E048EC56E40E94581E40
:1037000020E030E040E252E40E94F21D18160CF472
:1037100053C08091CA029091CB0201969093CB0244
:103720008093CA028091CA029091CB0205970CF453
:103730005EC00E94F30E1092CC021092CD02109245
:10374000CE021092CF028AE590E00E9474112B0104
:103750003C018091CC029091CD02A091CE02B0911B
:10376000CF02481659066A067B0658F18CE797E0A7
:103770000E94580A9B01AC0188279927DC01821B13
:10378000930BA40BB50B8093CC029093CD02A09326
:10379000CE02B093CF024DEC5CEC6CEC7DE388E79D
:1037A00097E00E94FF084DEC5CEC6CEC7DE38AE74F
:1037B00097E00E94FF08CDCF1092CB021092CA0270
:1037C000B1CF0E94E40E61E088E20E94410360E014
:1037D00080E30E94410360E08EE20E94410360E0CA
:1037E0008AE20E944103B092D502A092D4020E94C4
:1037F000DA08F9CE0E94FB0C80919B0390919C0308
:103800008039914038F480919F039091A0038039D2
:10381000914070F08091A7039091A8038039914066
:1038200030F78091A9039091AA0380399140F8F66E
:10383000CBE9D3E0412C512C32014AE0C301B20163
:103840000E944A0F83E892E00E943D0F69917991AE
:1038500090E080E04AE00E944A0F83E692E00E94F6
:103860003D0FFFEF4F1A5F0A6F0A7F0A28E04216EA
:1038700051046104710409F787E892E00E948E0FF9
:103880000E94E40E64E670E080E090E00E9475071C
:1038900060E088E20E9441038BE490E00E9497116F
:1038A000D092D502C092D402A2CF0E943B0E80914A
:1038B0009B0390919C038436910508F098CF8091EA
:1038C0009D0390919E038436910508F090CF8091DE
:1038D0009F039091A0038436910508F088CF8091D2
:1038E000A1039091A2038436910508F080CF0E9435
:1038F000E40E3092D5022092D40279CF8DE290E08E
:103900000E94D51185E090E09093D5028093D40277
:103910008DE892E00E948E0F64EF71E080E090E00D
:10392000CFCE85E090E00E94FB0E0E943B0E80917E
:103930009B0390919C038039914038F480919F03C0
:103940009091A0038039914070F08091A7039091ED
:10395000A8038039914048F48091A9039091AA036B
:103960008039914010F40E94E40E8BE992E00E94AD
:103970008E0F3DCF64E670E080E090E00E94750716
:1039800080E00E94860D8F7E482F50E070E060E05E
:1039900080E00E945B076CE370E080E090E00E94B2
:1039A000750780919607811102C00E94A50D84E1E0
:1039B0000E94590D7C0186E10E94590D88E10E9408
:1039C000590D8C018AE10E94590DEC0180919907F3
:1039D00090919A07853D910509F453C0C0F5009771
:1039E00009F459C0803C910509F450C080E00E9460
:1039F000860D8061482F50E070E060E080E00E941A
:103A00005B07B70190E080E00E94F71D2B013C01AD
:103A1000B80190E080E00E94F71DA30192010E948E
:103A2000152020E030E04FE753E40E94581E0E942A
:103A3000872060357105A4F59092D1028092D00262
:103A400061E08EE20E9441038EE190E05BC0863F20
:103A5000910591F08F3F910541F08B3E910531F634
:103A600062E370E080E090E004C063E070E080E03A
:103A700090E00E947507BACF68E170E080E090E0C6
:103A8000F8CF65E670E080E090E0F3CF6AE970E09F
:103A900080E090E0EECF6CEB72E080E090E0E9CF68
:103AA000BE0190E080E00E94F71DA30192010E94F8
:103AB000152020E030E04FE753E40E94581E0E949A
:103AC0008720603571053CF4B092D102A092D002FB
:103AD00061E080E3B7CFD092D102C092D00261E022
:103AE0008AE2B0CF8EE190E00E94FB0E809101024D
:103AF000909102020196909302028093010277CE88
:103B00008BE490E00E949C0FF1CF8091D0029091C5
:103B1000D1028330910589F48AE590E00E94D511A5
:103B20008DE290E00E94FB0E8AE590E00E949711E2
:103B300081EE90E00E94FB0E5ACE81309105C1F3D8
:103B4000029709F054CE8AE590E00E9497118DE229
:103B500090E00E94FB0E8AE590E00E94D511E8CF2C
:103B60008091D0029091D10283309105B9F484EB19
:103B700090E00E94D51181EE90E00E94FB0E8AE554
:103B800090E00E94D5118DE290E00E94FB0E8AE544
:103B900090E00E94971184E690E0CCCF81309105AF
:103BA00049F484EB90E00E94D51181EE90E00E94F0
:103BB000FB0EF1CF029709F01ACE84EB90E00E9441
:103BC000D51181EE90E00E94FB0E8AE590E00E9404
:103BD00097118DE290E00E94FB0E8AE590E00E9432
:103BE000D511D9CF0E94341E08F481E00895E894DD
:103BF00009C097FB3EF490958095709561957F4F35
:103C00008F4F9F4F9923A9F0F92F96E9BB279395E2
:103C1000F695879577956795B795F111F8CFFAF4F2
:103C2000BB0F11F460FF1BC06F5F7F4F8F4F9F4F23
:103C300016C0882311F096E911C0772321F09EE881
:103C4000872F762F05C0662371F096E8862F70E0E7
:103C500060E02AF09A95660F771F881FDAF7880FC1
:103C60009695879597F90895990F0008550FAA0B17
:103C7000E0E8FEEF16161706E807F907C0F012167F
:103C80001306E407F50798F0621B730B840B950B82
:103C900039F40A2661F0232B242B252B21F40895D7
:103CA0000A2609F4A140A6958FEF811D811D089574
:103CB0000E946B1E0C94DC1E0E94CE1E38F00E94E7
:103CC000D51E20F0952311F00C94C51E0C94CB1E2C
:103CD00011240C94101F0E94ED1E70F3959FC1F3E8
:103CE000950F50E0551F629FF001729FBB27F00DAA
:103CF000B11D639FAA27F00DB11DAA1F649F6627FF
:103D0000B00DA11D661F829F2227B00DA11D621F4D
:103D1000739FB00DA11D621F839FA00D611D221F07
:103D2000749F3327A00D611D231F849F600D211DEB
:103D3000822F762F6A2F11249F5750409AF0F1F06E
:103D400088234AF0EE0FFF1FBB1F661F771F881FD7
:103D500091505040A9F79E3F510580F00C94C51E2C
:103D60000C94101F5F3FE4F3983ED4F3869577954B
:103D70006795B795F795E7959F5FC1F7FE2B880F7D
:103D8000911D9695879597F9089597F99F6780E813
:103D900070E060E008959FEF80EC089500240A949D
:103DA0001616170618060906089500240A94121616
:103DB0001306140605060895092E0394000C11F449
:103DC000882352F0BB0F40F4BF2B11F460FF04C0F6
:103DD0006F5F7F4F8F4F9F4F089557FD9058440F4F
:103DE000551F59F05F3F71F04795880F97FB991F5A
:103DF00061F09F3F79F08795089512161306140617
:103E0000551FF2CF4695F1DF08C0161617061806A3
:103E1000991FF1CF86957105610508940895E8947E
:103E2000BB2766277727CB0197F90895052E97FBC7
:103E30001EF400940E942D1F57FD07D00E94481FBA
:103E400007FC03D04EF40C942D1F509540953095EF
:103E500021953F4F4F4F5F4F0895909580957095F6
:103E600061957F4F8F4F9F4F08950E946A1FA59FB6
:103E7000900DB49F900DA49F800D911D1124089565
:103E8000B7FF0C94351F0E94351F821B930B0895BA
:103E9000A1E21A2EAA1BBB1BFD010DC0AA1FBB1F4E
:103EA000EE1FFF1FA217B307E407F50720F0A21BC0
:103EB000B30BE40BF50B661F771F881F991F1A942D
:103EC00069F760957095809590959B01AC01BD0157
:103ED000CF010895A29FB001B39FC001A39F700DB1
:103EE000811D1124911DB29F700D811D1124911D02
:103EF0000895991B79E004C0991F961708F0961B46
:103F0000881F7A95C9F780950895AA1BBB1B51E1BC
:103F100007C0AA1FBB1FA617B70710F0A61BB70B39
:103F2000881F991F5A95A9F780959095BC01CD01DE
:103F30000895EE0FFF1F881F8BBF0790F691E02DAD
:103F400019940E946A1FB7FF0895821B930B08956E
:103F50005058BB27AA270E94C01F0C94DC1E0E9449
:103F6000CE1E38F00E94D51E20F039F49F3F19F480
:103F700026F40C94CB1E0EF4E095E7FB0C94C51EC2
:103F8000E92F0E94ED1E58F3BA17620773078407E2
:103F9000950720F079F4A6F50C940F1F0EF4E09528
:103FA0000B2EBA2FA02D0B01B90190010C01CA01F3
:103FB000A0011124FF27591B99F0593F50F4503E9E
:103FC00068F11A16F040A22F232F342F4427585F90
:103FD000F3CF469537952795A795F0405395C9F7A8
:103FE0007EF41F16BA0B620B730B840BBAF0915060
:103FF000A1F0FF0FBB1F661F771F881FC2F70EC0FF
:10400000BA0F621F731F841F48F4879577956795D1
:10401000B795F7959E3F08F0B0CF9395880F08F0BD
:104020009927EE0F9795879508950E9429200C9463
:10403000DC1E0E94D51E58F00E94CE1E40F029F4CE
:104040005F3F29F00C94C51E51110C94101F0C9465
:10405000CB1E0E94ED1E68F39923B1F3552391F313
:10406000951B550BBB27AA2762177307840738F0E7
:104070009F5F5F4F220F331F441FAA1FA9F335D044
:104080000E2E3AF0E0E832D091505040E695001CF8
:10409000CAF72BD0FE2F29D0660F771F881FBB1FB2
:1040A000261737074807AB07B0E809F0BB0B802D90
:1040B000BF01FF2793585F4F3AF09E3F510578F0BC
:1040C0000C94C51E0C94101F5F3FE4F3983ED4F38C
:1040D000869577956795B795F7959F5FC9F7880F90
:1040E000911D9695879597F90895E1E0660F771FE2
:1040F000881FBB1F621773078407BA0720F0621B73
:10410000730B840BBA0BEE1F88F7E09508950E949D
:104110008E206894B1110C94101F08950E94F51E12
:1041200088F09F5798F0B92F9927B751B0F0E1F078
:10413000660F771F881F991F1AF0BA95C9F714C028
:10414000B13091F00E940F1FB1E008950C940F1F41
:10415000672F782F8827B85F39F0B93FCCF3869561
:1041600077956795B395D9F73EF4909580957095BE
:1041700061957F4F8F4F9F4F08950E94FD2090F0D3
:104180009F3748F4911116F00C94101F60E070E016
:1041900080E89FEB089526F41B16611D711D811D9B
:1041A0000C94D4200C94EF20882371F4772321F011
:1041B0009850872B762F07C0662311F499270DC0DE
:1041C0009051862B70E060E02AF09A95660F771F79
:1041D000881FDAF7880F9695879597F908959F3F7E
:1041E00031F0915020F4879577956795B795880FB2
:1041F000911D9695879597F908950E94F51EA0F058
:10420000BEE7B91788F4BB279F3860F41616B11DB6
:10421000672F782F8827985FF7CF869577956795D2
:10422000B11D93959639C8F308950E94341E08F481
:104230008FEF0895FA01EE0FFF1F3096210531052B
:10424000A1F16115710561F48038BFE39B0749F165
:1042500068949038810561F08038BFEF9B0741F08A
:1042600099234AF5FF3FE1053105210519F1E8944D
:104270000894E795D901AA2329F4AB2FBE2FF85F44
:10428000D0F310C0FF5F70F4A695E0F7F73950F057
:1042900019F0FF3A38F49F779F930DD00F9007FCE9
:1042A0009058089546F00C94CB1E60E070E080E8D2
:1042B0009FE308954FE79F775F934F933F932F932B
:1042C0000E9415222F913F914F915F910E94581E9D
:1042D0000C94722129F416F00C94C51E0C940F1F37
:1042E0000C94CB1E0E94F51EA8F39638A0F707F891
:1042F0000F92E8942BE33AEA48EB5FE70E946E1EC8
:104300000F920F920F924DB75EB70F920E945D22EF
:10431000E4EEF0E00E94A4214F915F91EF91FF91B4
:10432000E595EE1FFF1F49F0FE57E0684427EE0FAA
:10433000441FFA95E1F74195550B0E94D7210F9044
:1043400007FE0C94CB210895DF93CF931F930F9317
:10435000FF92EF92DF927B018C01689406C0DA2E07
:10436000EF010E946B1EFE01E894A5912591359105
:1043700045915591A6F3EF010E94C01FFE019701E0
:10438000A801DA9469F7DF90EF90FF900F911F91E9
:10439000CF91DF9108959B01AC0160E070E080E86F
:1043A0009FE30C9415200C94C51E0C94EF200E94E2
:1043B000F51ED8F39923C9F3940F511DA3F391501F
:1043C000504094F059F0882332F0660F771F881F11
:1043D00091505040C1F79E3F51052CF7880F911D19
:1043E0009695879597F908955F3FACF0983E9CF0BD
:1043F000BB27869577956795B79508F4B160939537
:10440000C1F7BB0F58F711F460FFE8CF6F5F7F4F24
:104410008F4F9F4FE3CF0C94101F16F00C94EF209A
:104420000C94CB1E68940C94C51E0E94F51EA8F334
:104430009923C1F3AEF3DF93CF931F930F93FF92B2
:10444000C92FDD2788232AF02197660F771F881F41
:10445000DAF720E030E040E85FEB9FE3883920F0B6
:10446000803E38F021968F770E94A91FECE0F1E0A2
:1044700004C00E94A91FE9E3F1E00E94A4218B017E
:10448000BE01EC01FB2E6F5771097595771F880BE4
:10449000990B0E94F91D28E132E741E35FE30E9496
:1044A0006B1EAF2D9801AE01FF900F911F91CF9120
:1044B000DF910E94C01F0C94DC1EFA01DC01AA0FE0
:1044C000BB1F9B01AC01BF5728F422273327442789
:1044D000507820C0B75190F4AB2F00244695379503
:1044E0002795011CA395D2F3002071F0220F331FF2
:1044F000441FB395DAF30ED00C94A81F61307105F8
:10450000A0E88A07B94630F49B01AC0166277727FB
:1045100088279078309621F020833183428353831B
:1045200008950F931F93CF93DF938230910510F47A
:1045300082E090E0E091A307F091A40730E020E052
:10454000B0E0A0E0309799F42115310509F44AC094
:10455000281B390B24303105D8F58A819B816115E0
:10456000710589F1FB0193838283FE0111C04081B3
:1045700051810281138148175907E0F04817590704
:1045800099F4109761F012960C93129713961C935E
:104590003296CF01DF91CF911F910F910895009333
:1045A000A3071093A407F4CF2115310551F042174A
:1045B000530738F0A901DB019A01BD01DF01F801C1
:1045C000C1CFEF01F9CF9093A4078093A307CDCF7C
:1045D000FE01E20FF31F8193919322503109398339
:1045E0002883D7CF2091A1073091A207232B41F434
:1045F00020911F02309120023093A2072093A1073F
:1046000020911D0230911E022115310541F42DB774
:104610003EB74091210250912202241B350BE091BC
:10462000A107F091A207E217F307A0F42E1B3F0B9E
:104630002817390778F0AC014E5F5F4F2417350714
:1046400048F04E0F5F1F5093A2074093A10781933C
:1046500091939FCFF0E0E0E09CCFCF93DF93009762
:10466000E9F0FC01329713821282A091A307B09166
:10467000A407ED0130E020E01097A1F42081318102
:10468000820F931F2091A1073091A20728173907A5
:1046900009F061C0F093A207E093A107DF91CF91E9
:1046A0000895EA01CE17DF07E8F54A815B819E0194
:1046B00041155105B1F7E901FB83EA83499159910D
:1046C000C40FD51FEC17FD0761F48081918102961C
:1046D000840F951FE90199838883828193819B834D
:1046E0008A83F0E0E0E012968D919C9113970097F9
:1046F000B9F52D913C911197CD010296820F931F30
:104700002091A1073091A2072817390739F6309771
:1047100051F51092A4071092A307B093A207A0939B
:10472000A107BCCFD383C28340815181840F951FE1
:10473000C817D90761F44E5F5F4F88819981480F90
:10474000591F518340838A819B81938382832115E2
:10475000310509F0B0CFF093A407E093A3079ECFF3
:10476000FD01DC01C0CF13821282D7CF4F925F923E
:104770006F927F928F929F92AF92BF92CF92DF9271
:10478000EF92FF920F931F93CF93DF938C010097CB
:1047900099F4CB01DF91CF911F910F91FF90EF9092
:1047A000DF90CF90BF90AF909F908F907F906F9051
:1047B0005F904F900C949122FC01E60FF71F9C0133
:1047C00022503109E217F30708F4AEC0D901CD91A8
:1047D000DC911197C617D70720F1C530D10578F0C5
:1047E000CE0104978617970750F0C61BD70B229768
:1047F000C193D1936D937C93CF010E942D23C80167
:10480000DF91CF911F910F91FF90EF90DF90CF90AC
:10481000BF90AF909F908F907F906F905F904F90E0
:1048200008955B01AC1ABD0A4C018C0E9D1EA0912F
:10483000A307B091A407512C412CF12CE12C109727
:1048400031F58091A1079091A2078815990509F08B
:104850005CC04616570608F058C080911D02909122
:104860001E02009741F48DB79EB7409121025091EE
:104870002202841B950BE817F90708F055C0F09346
:10488000A207E093A107F90171836083B8CF8D91EE
:104890009C91119712966C90129713967C90139797
:1048A000A815B90559F56C0142E0C40ED11CCA1413
:1048B000DB0420F1AC014A195B09DA011296159765
:1048C00080F06282738251834083D9016D937C931F
:1048D000E114F10471F0D7011396FC93EE93129753
:1048E0008ECF22968C0F9D1FF90191838083F30157
:1048F000EFCFF093A407E093A30781CF48165906A2
:1049000008F42C017D01D3019ACFCB010E949122A2
:104910007C01009749F0AE01B8010E949724C801BC
:104920000E942D2387016BCF10E000E068CFFB01D0
:10493000DC0102C001900D9241505040D8F708951B
:10494000FB01DC0101900D920020E1F7089511E0D8
:10495000C9ECD1E000E006C0802FFE010E94991F43
:104960002196011DCA3CD10780E00807A9F7F894F9
:02497000FFCF77
:10497200FF01000000000000000000000000000035
:1049820000C409C40904FFFF00010000000000A5E3
:10499200078000363738391B1D1A1C3D3C3B3A391B
:1049A200383736000000007D0250029C0B26024977
:1049B2000236022702000000006A08A707ED07B7C7
:1049C200081E08FC07100800000000170EA7079C2D
:1049D2000B9B0B0D0A00536572766F20616E676C3C
:1049E20065206973206F7574206F662072616E672F
:1049F200652100203A2000424C414E43005455525A
:104A02004E5F544F5F434F4C4F5200545F544F5FC1
:064A1200434F4C4F52001F
:00000001FF
